:10100000FFFFFFFFFFFFFFFFFFFFFFFFFFFFFFFFF0
:20101000F8410020C1A20000E9D60000E9D60000E9D60000E9D60000E9D60000E9D600008A
:1C103000E9D60000E9D60000E9D60000E9D60000E9D60000E9D60000B7DC000097
:20104C002DE9FE430646DFF8DC82DFF8DC92B2780024101C00F03581801E00F00D81401ECD
:20106C00012840F2E180801E00F0A880401E7BD0401E59D0083800F04681801E40F0468136
:20108C004546B08895F83E70ADF80000052F45D001208DF80A0005F1CC000DF05FFE95F8FF
:2010AC003E0001281BD0042819D0032806D0022804D0F28831897089B38907E0B5F8402061
:2010CC00B5F84210B5F84400B5F84630ADF80220ADF80410ADF80600ADF8083020E0B5F83C
:2010EC004000F1888842D8BF081CADF802003189B5F842008842D8BF081CADF8040071892E
:20110C00B5F844008842D8BF081CADF80600B5F84630B0898342D8BF031CDDE78DF80A4038
:20112C0068460DF031FCF1E0454605F1F0000DF015FE7078002840F0E980F088E882308935
:20114C0028837089688305F1CC000DF0E9FA002840F0DC80AB6A002B00F0D8801B68E88A21
:20116C00298B6A8B9847D1E0B0880BF08BFF45462146062205F1380005F090FFEC822C8384
:20118C006C83B079687305F1CC000DF0E7FD05F1F0000DF0E3FD01244FF6FF706F79A882FF
:2011AC004FB9B079082814BF04200520A87020460CF0CAFFAAE00320A870A7E0707858BB1C
:2011CC00311D0A68454605F138000260898881800627AF707089A882F089E882308A28835F
:2011EC00708A6883F0784446287394F83E00012818BF02280AD11F2009F0F2FB4FF47A714F
:20120C00024604F1CC00514309F0BAFFF0787289311D09F00DFF7BE0707831286FD14D464E
:20122C0004202870204623E07778002F67D14546698AA878032A13D02A796F7921B9012AE9
:20124C0014BF6C712C7106E0174304D005F1A80009F096FFA878072814BF0420062007E0A2
:20126C00062807D02879002808BF0324DAD00220A8704DE00724D5E77078751C00283ED1FE
:20128C004246F7789078D1799FB9022816D0072814D0062802D1517901290FD103280DD0A1
:2012AC0002F1A8000DF03CFA40B901200CF04CFF04E08732204608F06DF928702878F0B9B1
:2012CC0024E07078D8B945460220102105F148020AF0FEFA0320102105F158020AF0F8FAE5
:2012EC00F61C05F12C00B7883168878005F1680201600120A979A87008F04CF940B108205D
:20130C004D46287004E0B0880DF032FB012C06D14546686A18B1016809B1A8788847BDE86F
:20132C00FE83C0466C0900206E0900202DE9FF41954C0F460546F80B80F0FC80B80880F0F8
:20134C00E980B80F6CD2A07A00284DD138094DD30026667001252572304604F0CEF88B4896
:20136C000DF0FAFA8A49324604F160000DF0D3FC607901281CD1A079D0B9864D286878B1E7
:20138C000DF044F86169E3692A68401A000BA061C018B0EBC21F24BF301CE0610AD2E06119
:2013AC0004F1BC004FF000510CF06AFF304619E06571304604F1340340F609021A8094F82D
:2013CC00412002F0F00242F0010284F84120E68694F8402002F0F00284F840203146A16317
:2013EC006D4D2B60606118E0380914D2B80BC0F0C28004F124000DF0ADFC061C08D0706876
:20140C0030B17568F068B6F91C1066A20CCAA84727F40057AFE00020A07227F00807AAE01F
:20142C00A968088840F60208804507D00A8B4FF61F60104040F43470088306E00A8A4FF658
:20144C001F60104040F4347008826069D0B104200CF064FAB0B10CF0D9FF6169814226BFE0
:20146C00401A401E401A000BE860688AE968401840F6C411E860814203D340F2EE2282426E
:20148C0000D9E960AE6996B14448B0420FD094F8410010F00F0F0AD1698C4046C01D88427B
:2014AC0005D142A20CCA28466FF48071B0473C4904F1600000220DF02EFCA07958B1022070
:2014CC00ADF8000068460CF019F80026A671BDF80800A4F85C000120607020794FF00008DD
:2014EC00401C207104F1200084F807800DF032FC002808BF47F0020702D019200DF040F940
:20150C006E6926B12BA20CCA28464146B04727F0005730E004F12C0528460DF01BFC02F06A
:20152C00D7FE28460DF016FC27F0020708B147F0020720E00DF0ACFA014604F128000DF030
:20154C0009FC0646B569A80810D27EB125EA0500B06108460DF0DCFB706850B12A46F06867
:20156C00B6F91C1075680023A84702E008460DF0CFFB27F4804727B104F1BC0039460CF0B8
:20158C007FFE0090BDE8FF81481500209D60000041D20000042E002000100440277600003D
:2015AC009D320000000000002000000000000000000000020000000000000004F8B5A0F2EB
:2015CC00013517460E46022D40F20C818649874C874A884B2D1F0F2D04D9143D4AD0AD1E49
:2015EC001CD011E0DFE815F0BA00B500EB00DB00AE00A700FE009F009800100010009000C7
:20160C0086007A006F006200282880F2EB80022E40F0E880398809F06DFFF8BD012E40F0BE
:20162C00E1800A469078012800F0DC80D1783878D07081B9002800F0D5801078012800F0EF
:20164C00A080042800F09D80062800F09A80052800F09780F8BD3878002840F0C380107831
:20166C00032800F09980072800F09680052800F09380F8BD012E40F0B5803878012840F073
:20168C00B180254605F1F0000DF04AF8002840F0A98004F13E01002005F04CFF002840F010
:2016AC00A18004F1CC000DF059FBF8BD022E40F0998038880A28C0F29580B0F5486F00F3B5
:2016CC009180114614E0022E40F08C803888B0F5FA7F80F2878011460880F8BD022E40F0EB
:2016EC008180388806287DDBB0F5486F7ADC1946891CF1E7022E75D13888062872DBB0F5B3
:20170C00486F6FDC1946E7E7012E6BD13878062868DA1146891F0CE0012E63D138780428D9
:20172C0060DA093105E0012E5CD13878082859DA08310870F8BD012E54D13878042851DA14
:20174C00C91DF6E7012E4DD1387804284ADC891DEFE7022E46D138881031BDE7012E41D1C2
:20176C000A46D07801283DD091783878907061B9002837D01078012803D0042818BF0528D9
:20178C0030D101200CF0E0FCF8BD387850BB1078022818BF052825D10CF05AFFF8BD2546B2
:2017AC0000211F2205F18704204605F077FC39463246204604F086FB0020EE710EE02546C2
:2017CC0000211F2205F16804204605F067FC39463246204604F076FB0120AE71314622469A
:2017EC0007F0D8FEF8BDC0466E0900206C090020B0090020AC0900202DE9F04F0128ADF15F
:20180C00140D40F0F280DFF81492D9F8DC00012840F0E9800220C9F8DC000CF0F1FF0290D0
:20182C00012008F0A1FB20B101210646C9F8DC10D5E00CF0CDFF03906E484FF00008C0F836
:20184C00008001200CF06AF8012818BFCDF8008004D1404607F02AFD0120009066486E4CA6
:20186C00C0F800801934D4F8FF0F11200DF0C8F800280CBF4646012610200DF0C1F808B1CA
:20188C0046F002060F200DF0BBF808B146F004060B200DF0B5F830B1584800685849006B5C
:2018AC000246088890470A200DF0AAF80028404618BF01204FF0805B0BF5DC7528B128682A
:2018CC005049006B0246088890474F480127076028688069014646F0200088474B48076044
:2018EC000DF088F800F001010191400815D248480CF0D7FF8246BAF1040FF8D0BAF1010F41
:20190C0006D1DBF8D801406802464148032190474049086820F003000860404600F080F862
:20192C002868D4F8FF1F806B8047019801280ED0BAF1010F06D1DBF8D80140680246344825
:20194C00394690473349086840F0030008602A480760286840690146304688470B200DF0D8
:20196C004FF828B128682649C06A0246088890470A200DF045F828B128682249C06A0246B9
:20198C0008889047204807600322C9F8DC201F4BC3F800802868406B01463046884701288E
:2019AC00F8D1042008F0E0FA124807601A48D4F8FF1F01688909FCD30098012802D1384673
:2019CC0007F074FC0DF010F8082008F0CDFA06460398C9F8DC7009F0FDFF06F083FE0298AE
:2019EC000BF004FB02E0042600E00126304605B0BDE8F08F0C40094000022243B8010010BA
:201A0C00E6EF0000E2EF00002820086080010443004003402422084014100940941B00204F
:201A2C002DE9F84FDFF8E8B10746ABF13500DFF8D4910068800880F0D6800BF00BF97849FD
:201A4C000831D1F8008000254FEA28725FEA985102F101020AD2C0F13E0110F10A0F4FEAB9
:201A6C00E101D8BF08218A42B8BF0A1C624BD3F87C11C1F304611629A8BF20391B68C3F3F9
:201A8C000443162BA8BF203B9A465118162905DA11F10A0FB8BF6FF0090100E01521574BD6
:201AAC00574E01F01F0242F4F8521A80326812F0030F18BF0125D20828BF45F002050FB1E1
:201ACC0045F004054A4692F90730C31A052B04DA9379AB4208BF918865D0DFF82CE10F2856
:201AEC00A0F10F0C25DB0CEB0013A3F1F00C4FEA2C26072E88BF07263446062C88BF062443
:201B0C005EF82470042303EB84037446E358DB1B03F0FF04EF0824BFC3F307273C44AF085D
:201B2C0024BFC3F307473C446F0828BF04EB136401E0002426465EF826E0EF080EF0FF03AA
:201B4C0024BFCEF307273B44AF0824BFCEF307473B446F0828BF03EB1E63A4B2ACEB06261A
:201B6C00BAEB010104FB06F404F1800403EB1423D8BF0121342408F0FF074C437C43B4FB0F
:201B8C00F3F14FF6FF738B4238BF191C802889B2918005DA10F1800FB8BF6FF07F0000E00D
:201BAC007F20D0719571194800681F2910604FF0000008D340F2FF128A4206D24908401C04
:201BCC008A42FBD301E01F219180124F0F39090940EAC10047EA0001CBF8FB1F0026CBF88F
:201BEC00FF6FBDE8F88F0C490C4F4A4608200F60921D1070BDE8F88F3C1100506E62084058
:201C0C00242208405C3600209C130050082009403500094000E7A48030100940FDFDA40058
:201C2C00AC3F00502DE9F0411C4615468C4208BF854282BF00230022E5E0002C08BF002D92
:201C4C000AD100290EBF00286FF000006FF0000100F0E1F8BDE8F0815FF000085FF0000E2D
:201C6C00002C08BF8D429CBF2C1C0025070C47EA01470E0CB44208BFBD429EBF5FEA04447E
:201C8C0044EA15445FEA0545070A47EA01670E0AB44208BFBD429EBF5FEA042444EA15642B
:201CAC005FEA0525470847EAC1774E08B44208BFBD4200F29380870847EA81778E08B44292
:201CCC0008BFBD427CD8C70847EA4177CE08B44208BFBD4266D8070947EA01770E09B44290
:201CEC0008BFBD4250D8470947EAC1674E09B44208BFBD423AD8870947EA81678E09B442E6
:201D0C0008BFBD4224D8C70947EA4167CE09B44208BFBD420DD8E60146EA5566EF01B1421F
:201D2C0008BFB84201D3C01BB14158EB08085EEB0E0EA60146EA95664FEA8517B14208BF1C
:201D4C00B84201D3C01BB14158EB08084EEB0E0E660146EAD5666F01B14208BFB84201D36A
:201D6C00C01BB14158EB08084EEB0E0E260146EA15762F01B14208BFB84201D3C01BB1417B
:201D8C0058EB08085EEB0E0EE60046EA5576EF00B14208BFB84201D3C01BB14158EB080807
:201DAC004EEB0E0EA60046EA9576AF00B14208BFB84201D3C01BB14158EB08084EEB0E0E35
:201DCC00660046EAD5766F00B14208BFB84201D3C01BB14158EB08085EEB0E0EA14208BFF0
:201DEC00A84201D3401BA14158EB08085EEB0E0EA34208BFAA423EBF2D0A45EA0465240A92
:201E0C0089D3734642461E4617460B46024631463846BDE8F08170472DE9F043ADF11C0DED
:201E2C0007F09CF9754C04F1280004F16C0104F097F8DFF8CC81E06041460CF027FF0AF040
:201E4C0069FE04F134000CF048FD04264FF47A7200236C49206104F18800009607F05AFE91
:201E6C001F20012109F046FB01250020ADF806004FF44871ADF80C1008278DF8045081463E
:201E8C008DF8086001AAADF80A706420ADF80E902946ADF8100040F20530FFF78FFB40F27B
:201EAC00063002210DF10602FFF788FB4FF442701B2104F14E02FFF781FB40F207300E21BE
:201ECC0004F14002FFF77AFB4FF44470294602AAFFF774FB40F2113002210DF10A02FFF747
:201EEC006DFB40F21230022103AAFFF767FB40F2133002210DF10E02FFF760FB4FF44570E3
:201F0C00022104AAFFF75AFB0CF044FD0620A02109F0F0FA0720A02109F0ECFA3846A0218C
:201F2C0009F0E8FA0920A02109F0E4FA8DF8185003278DF81B504846059031468DF81900BA
:201F4C0005AA8DF81A704FF4816009F09FFA4FF48060294606AA09F099FA40F20240294650
:201F6C000DF1190209F092FA40F2034029460DF11A0209F08BFA40F2064029460DF11B0239
:201F8C0009F084FA0CF073FE0CF0DAFE0CF016FA07F09AFD0AF0C2FB05F032F9A0707F2855
:201FAC0014BF0A200F20052108F062F903F0A6FA30B900F01BFF18B9A07800F0BF00A07042
:201FCC000AF04CFF0AF0C0FB0AF092FB07F0F0F807F054FD0AF0CEFB0BF0F0FA0CF098FB16
:201FEC000AF028FF0BF0A0FE0AF072F9E06841460CF04CFE07B0BDE8F083C0462005002087
:20200C00C5E00000DDE000002DE9F84381460CF0E5FC002100B901216B4E30680028FCD01C
:20202C006C4D01242D1DEF6A346009B10CF0DCFCDFF89881C7F3072008F1BC0108600CF006
:20204C00CDFC002100B9214630680028FCD02F68346009B10CF0C8FCC7F38440C8F8C0003B
:20206C000CF0BCFC0146002001B92046014630680028FCD0ED69346009B10CF0B5FCC5F33D
:20208C008120C8F8D000B9F5C061C8F8B81000F0968098F8D80068B9C8F8D410D8F8C000E9
:2020AC00C8F8C800D8F8BC70C8F8C470D8F8D060C8F8CC60D8F8D410D8F8BC60002954BFD4
:2020CC0002206FF00100454605F1C8031A6801EB41014018411000EB917002EBA0021A60D8
:2020EC00D5F8C810C5F8C46000291CDD1E293DDDD5F8CC0030B93429B4BF15391E21C5F82F
:20210C00C81025E02A29BABFD5F8C8000B381E20C5F8C800D5F8C4003F28B4BF401C3F2049
:20212C00C5F8C4001FE0D5F8CC00032812D011F10B0FC6BFD5F8C8000B30201CC5F8C8003B
:20214C00D5F8C4000028CCBF401E0020C5F8C400032009E011F1150FC6BFD5F8C80015309F
:20216C00201CC5F8C8000020C5F8CC00B5F8C400174E30214FF47F4208230090304607F096
:20218C003FFE009404214FF400321123304607F037FEB5F8C80004214FF4F8021223009056
:2021AC00304607F02DFEB5F8CC0020214FF440620A230090304607F023FEBDE8F883002051
:2021CC0088F8D800BDE8F88300800C40941B002000A00C4000A00C402DE9FC4F83F00043F1
:2021EC0001E02DE9FC4F1F03FF0847EAD2574FEA42284FEA43095FEA595906D147EA080AD1
:20220C001CBF00210020BDE8FC8F57F000575FF4E06E1EF1FF0EF14505D14FF00000190D9A
:20222C000905BDE8FC8F002B05D55FF0000AD8F100086AEB07070C03E40844EAD0544FEA3C
:20224C0040254FEA4106760D08D144EA050A19BF00210020191C101CBDE8FC8F44F00054C2
:20226C00764504D10020090D0905BDE8FC8F002904D55FF0000A6D426AEB0404B6EB090E2F
:20228C0008D5A2463C465746AA464546D046CEF1000E4E46BEF1360F5CBF4FF0000B23E000
:2022AC00BEF1000F04BF4FF0000B1AE0CEF1390ABAF120092EBF08FA09FB07FA0AFB4BEA49
:2022CC00080BDEF1200A07FA0AFA38BFBA4647FA0EF72DBF28FA0EF8AEF1200E4AFA0EF879
:2022EC00D04415EB08057C4154EA050A02BF00210020BDE8FC8F002C58BF4FF0000A06D50E
:20230C005FF0010A5FF0000E6D426EEB0404A6F101066D006441FAD515F4806E11D005F49A
:20232C0080794BEA090B15F5806554F1000428BF761C0BD205F400795BEA090B08BF25F416
:20234C00006525F4E0656D0044EB0404B61CDEBF00210020BDE8FC8F5FF4E06E1EF1FF0E6D
:20236C0076450AD34FF0000013F00043FF21C900C91D09051943BDE8FC8F270547EA153029
:20238C00210B41EA065141EACA71BDE8FC8F70472DE9F04FADF1840D00F0ECFE07F00CFDD8
:2023AC000026012804D10BF0A3FD022808BF012658490868C0F38150012806D151F80C0C44
:2023CC000127010E07FA01F00643534800780AF0A1FE524D2C46286038B1FF2204F14001FA
:2023EC0007467F1E01F8012BFBD14D4909684FF0000901F0FF02FE2A1BD0DFF824C101F0F5
:20240C00FF074A460123FF2F0CD0B8427FD903FA07F73E427BD101F0FF0147EA0909611826
:20242C0081F840205CF8041F521C01F0FF07FE2FE9D1092002F048FA394800212422082384
:20244C00606001A80CF05AFB4FF0010804F1240001AA8DF81C80414609F0AEFD236843B3DD
:20246C00002794354FF0040BBA4608FA07F0064219D119EA000F04BF07F0FF0141F4C041E5
:20248C0005D0E019264990F8400051F82010254801F08EFFF8B24FF0FF310BF069FA2368C5
:2024AC00C5F800A001E0C5F800B07F1C2D1D9F42DBD30AA80021302208230CF0E3FA0025A3
:2024CC00FF2010210AAB1290174A009504F1080008F056FD16A82822082329460CF014FB5E
:2024EC0004F1600016AA1C9510491D952B4608F043FF0F4951F80D0C20F4F85040F40050BA
:20250C0041F80D0C4746C1F8FF7F0A4E376021B0BDE8F08FB43F005069360020C0310020A2
:20252C00A8EE0000007FC76799D90000B1A100000D300940080009402DE9F84F994692469D
:20254C008B4606460CF0A4FA5C4C0090B4F93210B4F930000AAF401A40F6F8710140082990
:20256C0080F29580B4F93000401C6FF31F302086B4F930800BF062F8054606F170000BF0D9
:20258C00EDF8C5F808B085F81EA0C5F80490A5F81C80EE6097E80C004CA003C80027194000
:2025AC00104005F1100383E8030004F12000EF770368002B5ED1294609F0BAF800285FD097
:2025CC00A6F8B880E87F40F08000E87796F8BA00012804BF86F8BA70A771607A40B160780C
:2025EC0030B10120A0726772A7712079401C207100980CF08DFB606A00285BD1607800280A
:20260C0034D1E079012855D00CF042FA0646207A40BBA86808F000FC2A49294AE368096843
:20262C001060B0B1DD681068401BB0FBF1F0012898BF012104D9DB681068C01AB0FBF1F178
:20264C00983420460CF0ACFB20460BF097FE30462EE030460CF05CFB04F1BC0004210BF085
:20266C000FFE27E0184901200870F0E719200CF087F81FE004F12000294609F059F848B9E7
:20268C00B4F9300000F6FF706FF31F3020866FF001080CE0A6F8B880E87F40F08000E877F5
:2026AC0096F8BA00012804BF86F8BA70A77100980CF02EFB4046BDE8F88FC0464815002028
:2026CC00042E0020E8F8000068360020F1EFFF9F200000002DE9FC415E4C574D574EDFF843
:2026EC0060815A4F94F8E410481E0B2861D8DFE800F07B2C4306234306234306766404296C
:20270C0007D001220A2945F8212C14BF0220032004E02021012045F8211C024684F8E20078
:20272C00002045F8390C0827C5F8FF7FC5F8F37F45F8392CBDE8FC81052914BF092006203E
:20274C00002584F8E400356070E094F8E1700120383D002FC5F81B0004BF0620002102D0AD
:20276C000021F160032084F8E400032045F8010C31603068800859D294F8E400012503284E
:20278C000DD00021404660220523009107F038FB94F8E400062814BF0A200720D1E70220A8
:2027AC000090002160220523404607F029FB0420C7E70BF0EEFDBDE8FC812249002622483C
:2027CC000E60012505600E2002F014F8022009F073FA84F8E45084F8E360BDE8FC8100208F
:2027EC0038600C2578601FE01948006800680146202088472C3D41F61D560F2000214FF400
:20280C00C072072345F8010C4046C5F803600225009507F0F5FA404600214FF4C072072378
:20282C0007F01EFF0120386084F8E45004F178000BF0A4FDBDE8FC8139400C4038600C403B
:20284C0000A00C402C500C4004800C4034600C40A0010010941B00202DE9F8435C4C04F19A
:20286C0020000CF077FA15460E4600900CF010F905F001078146B6F1FF3F0CD1606A20B952
:20288C00B4F93200401C06B202E0606AB0F91C60002084F85F00304609F0AEFF0326002800
:2028AC0000F08A80616ADFF81C81814258D0009FB8422ED03FB100990A68904209D009683A
:2028CC0000290091F7D1832E41D048460CF020FA3DE004F198000AF041FF00980168AA086D
:2028EC0002D20A6802600846002202600091009818B948460CF00CFA28E0C17F41F004014A
:20290C00C17768460BF0A8FB0146404608F010FFEDE704F198000AF021FFA8083ABF206AA5
:20292C0000680020206248460CF0F2F90099C87F40F00400C87768460BF08EFB01464046BA
:20294C0008F0F6FE009808B1A808EFD28326E079012834D004F1BC0002210BF091FC2EE024
:20296C00A90803D3216A009100262662C27F0121B9401143C1770BF02BFF0446002F14BFA1
:20298C00114812480AF0BAFD48460CF0C1F9A80801D3009820B9204609F01CF883260EE084
:2029AC00C17F41F00401C17768460BF055FB0146404608F0BDFEECE748460CF0A9F930466F
:2029CC00BDE8F883741500200100020401000104481500202DE9F04F0746880FADF1140DA0
:2029EC00C0F0A48005F092FF564D00261C352E60504845F81C0C012002F07FFD4E480BF0AC
:202A0C00ABFF4E48BC6890F8402040F60A09B34600F1340188468246C68690F84130A1F882
:202A2C00009002F0F002C0F838B003F0F00180F8402041F0010166809AF8052080F8411021
:202A4C00012A01D17B7CA3B1B968098848460838884205D0218B4FF60F400840208304E0F4
:202A6C00218A4FF60F4008402082B8687E7403F0F2FBB86869460AF051FD68460BF010FE61
:202A8C00241D494600E01C1D236813B118888142F9D1C4F80080607A00F0F00060720AF102
:202AAC0020000CF057F980680088C91F814220D0491C81421DD007F120000388DBB197F8C0
:202ACC002C1097F82D30C7F824B001F0F00187F82C1003F0F00141F0010187F82D10CAF8FD
:202AEC00380098F80D007E8400F0F00088F80D0001E0CAF8146028680028FCD02E6001203C
:202B0C000AF00CFF012808D0607A00F0F00040F0010060720A480BF01FFFB9680A8A4FF681
:202B2C00FF3010400882B86845F81C0C05B0BDE8F08FC04601010E0439130000481500203F
:202B4C007589000000100440B0B5456884684F48297BADF1180D012916D0217E627E4C4BF5
:202B6C002F7E0143009143EA02010191494937F0010718BF081CA27E1043029095F88D002A
:202B8C000322FF2811D00DE0677E217E3843A37E019041F00041009143F000403E490290CF
:202BAC0095F88D00014304220391FE204DF82200694605F1900003F0D3F9C5F89C000028F7
:202BCC0008BF00205FD0287B344951F8200001282BD02068B0F1804F14BF22220A22217E4C
:202BEC00D5F89C0009F000FD2068B0F1804F14BF21220922617ED5F89C0009F0F5FC206877
:202C0C00B0F1804F14BF24220C22A17ED5F89C0009F0EAFC95F88D10FF2933D02068B0F10C
:202C2C00804F14BF23220B2228E02068B0F1804F14BF21220922217ED5F89C0009F0D4FC62
:202C4C002068B0F1804F14BF22220A22617ED5F89C0009F0C9FC2068B0F1804F14BF242216
:202C6C000C22A17ED5F89C0009F0BEFC2068B0F1804F14BF23220B2295F88D10D5F89C000F
:202C8C0009F0B2FC012006B0B0BDC046000480A0004000800004C0A0002000802CEF000034
:202CAC002DE9F04305466E68AC680F46ADF1340D0BF0EEFE96F8D910241D012903D10CF0BD
:202CCC0027F8002084E04FF0010986F8D9900CF01FF84FF00008C6F88880386930617869E2
:202CEC007061387E3076387B307338783070786886F8A480706078694146092828BF494694
:202D0C0086F88C10207A01F0DFFD284606F0A0F8E07D86F88D002846FFF716FF50B9207AA6
:202D2C0001F068FD0BF0B4FE86F8D9800BF0F0FF45464CE001A84146302208230BF0A2FEC4
:202D4C0006956078CDF80080234A0990217801AB06F11C0008F014F901A8414628220823A7
:202D6C000BF0D2FE05951D49606801AA4346079006F1380008F000FB307878B901A84146BE
:202D8C00242208230BF0BAFE8DF81C9006F16C00414601AA09F010F9114800E0B868B060D2
:202DAC0005F086FDC6F8A000307B012808D1D6F89C000C490BF06AFFD6F89C0000B1856061
:202DCC00094A06F1C40004212B4609F07FFF28460DB0BDE8F083C0461D5B00001591000065
:202DEC0013EC0000CDAB000079EA00002DE9F84F07F0D6FB5FEA000800F08A80464E0024C5
:202E0C0035680094B8F1000F4ED0C4F30C00002700B90127DFF808A1B9460AF1100A48B93F
:202E2C0028460F21012208F04FFC284600220A2108F04AFC04F5802005F0CAFB0025B8F168
:202E4C00000F1FD0291950464FF4807203F03AF828194FF48071524600F5802004F0A4FB01
:202E6C005FEA00080AD0D3464FF480771BF8011B009808F0C9FF7F1E0090F7D105F580755D
:202E8C00280BDCD03068B9F1000F054608D00F21002208F019FC284601220A2108F014FCB0
:202EAC0004F58054600CADD0B8F1010F04D04FF4F42005F08DFB29E028460A21002208F033
:202ECC0003FC0098002108F09FFF002108F09CFF04464FF4F42005F07BFB104A002797813F
:202EEC0097804FF6FF70508014804FF40046D6800425957346231372537293721021D37259
:202F0C00FF274FF4F420D77304F04EFB08F02CFE4046BDE8F88FC0462C050020D032002054
:202F2C00D03200202DE9F041424C464D8046C8F38140401E02D0401E2AD025E0284620306E
:202F4C000168880C20D24FF4804020603A48D0F802204B0AC1F3033703F0800322F08F022B
:202F6C00134347EA0302C0F80220D0F801300E1266F30303C0F80130026801F0E70722F023
:202F8C00E70247EA020102E04FF00041204601602F4E301D0068C0F3C0070FB94020A06209
:202FAC004FF4007020640BF083FB40F0300084F8C800C8F3815040B3401E03D0401E1FD0B4
:202FCC0002211EE001200AF0A9FC07460420394606F02EFD04200AF0A1FC8742FAD1361F4F
:202FEC00366826F07F4008F037FE14480068036807214FF06022300E98474FF4806020604D
:20300C000321042006F014FD06E00420012106F00FFD0B4808F020FE284600680A4947F658
:20302C00180700F03F0084F8CB0F084E0F803068BDE8F08140A00C400A600840B4010010AA
:20304C00BD3786006C13005070B00C402C200940AC3F00502DE9F04F0C464549CA7AADF1C8
:20306C002C0D84460592487B09900D7900958A7A488B4B8A0E7B91F805A091F8028004922F
:20308C00B1F846E008904A7A088B0392CD7807900A7AC88A02920F6A0690CA79888A019294
:2030AC008A79E146A9F54079B9F11D0F10D8DFE809F05B5553514F4D4B494643413F3C3A02
:2030CC00380F34312E2B2923201E1C0F19181716BCF1280F49DA604607F082FC21E0099E02
:2030EC00B246D046CDF814801DE00898079007980690DDF818E005E03831086820608888D9
:20310C00A08032E070460AE0B1F8440009E0B1F8420004E0B1F8400001E091F83E00034652
:20312C0012E0208021E0059804900498039001E03231E2E7039802900298009006E0019AAB
:20314C0087310DE068310BE01846EAE7009D0BE02C31D2E7276008E0583100E048311022EA
:20316C00204602F0AFFE00E025700BB0BDE8F08F6C0900202DE9F041444C94F8E700ADF16D
:20318C00280D00286FD1394F387B01250021242284F8E7507E6884F8E6000823C4F80C616F
:2031AC0001A80BF093FC002604F10C00069601ABADF814602E490796324608F0D7FB2D497C
:2031CC0004F1300001AB324608F0D0FB2A4904F1540001AB324608F0C9FBB8680146284666
:2031EC008847DFF89C8025487B7B0078D8F80410C1F381571BB1032F03D184F8E150032F05
:20320C0016D0022F14D0012F26D103201D4C009031464FF040521C23204606F0F1FD0095FE
:20322C0031464FF400720923204606F0E9FD13E0022008F059FD032F0CBF4FF47A7142F226
:20324C001071114800685434B1FBF0F120460BF0A7FD20460BF092F8D8F80000C00802D2AF
:20326C00304608F041FD0AB0BDE8F0813CF80000E777000041650000A96F000069360020B7
:20328C00B03F005000A00C40E8F80000941B0020F8B50AF045FE404E3E4F0446A00823D35B
:2032AC00796A09B33D4600200B698A69686204EA0300104340F0020006F1080288610B69BB
:2032CC0010689843106001F1100090E80C0030681A1C9043306005F12C0008F029FA022108
:2032EC0005F1BC000AF0CCFF786AA10815D200F110020CCA002122400B40002B08BF002A16
:20330C000BD0016985690C40B8622C434FF48041846107F1BC000AF0B3FF786A002837D13E
:20332C0007F1200420460BF015FD051C30D0F868E968884226D1A86807F06EFD1749086025
:20334C00E0B906F1080128690A6810430860326805F1100393E80300081C104330600023BF
:20336C003361A86846F80C0C06F1100000680028FAD020460AF070FE7D62F8BD086804F020
:20338C007FFDF8BD07F1BC004FF480510AF078FFF8BDC046481500200C100440042E0020CD
:2033AC002DE9FE4F09F006FC3F4C4FF0FF3104F10C0002F04DFC3A480568DFF8D8A0DFF858
:2033CC00DCB043F69820B0FBF5F836484FF47A774FF6E856B0FBF5F950E009F047F940460F
:2033EC0004F08CF90DF10A0102A806F0FDFEBDF80800BDF80A1001AA6B4604F091FA0198A4
:20340C00594605F027F84FF002031ED80198224904F0F0FF0AD80099504604F0EBFF05D800
:20342C0000981B4904F0E6FF98BF01230198514604F0E0FF09D80099144804F0DBFF04D8AD
:20344C000098114904F0D6FF08D93BB1012B03D10F20012106F00CFF0A2000E00F2001212B
:20346C0006F006FF0020042102AA05F0E9FB60887843801BB0FBF5F004F040F9607801287F
:20348C00ABD04846F8E7C04600007042000020420000A0420000F04100000C4200000000BD
:2034AC00E8F8000040420F00DC0F0020F8B5374C0D46A80848D2E80867D304F120000BF0FD
:2034CC0049FC00280EBFE068C068E0604168304A09781160416812680978914206D08769A4
:2034EC0027B131A20CCA6FF0FF01B847022008F0FBFB112001F0E8F90120E071E068011DF6
:20350C00007C10B16079012804D00E2001F0DCF9E168091D08681F49083007680FB9476833
:20352C001FB10020C8611C4F0F601C4A40F2FF70002710601A4E8F611A484E610BF00CFA84
:20354C00192006F083FFF8BD04F12C0630460BF001FC00F0BDFE30460BF0FCFB25F0020535
:20356C0004F1200158B9E80803D208460BF0F2FB58B104F198000AF0F1F8042101E045F069
:20358C00020104F1BC000AF07BFEF8BD48150020D021084000100440510007060000046077
:2035AC0002000040E129000000000000000000022DE9F04104466768A5680E46ADF1380D0D
:2035CC000BF066FA97F8DC102D1D012903D10BF09FFB00205EE04FF0010887F8DC800BF0B0
:2035EC0097FBF168204604F015FE0028F1D13078387070687860307A002130220823F860DD
:20360C0001A80BF03FFA0694287A00260990234A0096696801AB07F1100007F0B1FC01A8F1
:20362C002822082331460BF06FFA05941C49E86801AA3346079007F12C0007F09DFE01A8C6
:20364C002422082331460BF059FA8DF81C8007F16000414601AA08F0AFFC387838B907F141
:20366C007C00314601AA08F0A7FC0E487860C7F8BC603E72C7F8C060286801F025F9204668
:20368C0006F076FB084A07F1C8000421234609F01DFB20460EB0BDE8F081C0461D41000068
:2036AC006B90000003EC00003DE700003EB50AF0FDFE3B4C30B90620641C20700BF0ACF9C2
:2036CC0000203EBD002501206821657003F0DEFF2220694601228DF80000372008F0DCFF8C
:2036EC0008B9052060700BF097F96078002818BF281C54D101200C2103F0C8FF0220694664
:20370C0001220BF0E3F800283CD09DF80000400836D303200DF1010107220BF0D7F868B359
:20372C009DF80700000927D29DF802109DF80100B4F908501B4B9DF8042040EA012000B281
:20374C0068439DF803500112A3F11000B4F90A30818345EA02219DF806509DF8052009B276
:20376C0059430912B4F90C30C18342EA052109B259430912018407E0032004E0042002E01C
:20378C00022000E00120607011208DF80000694601220A2008F080FF0BF03EF960783EBDFC
:2037AC000C250020482400202DE9F047ADF1180D02F006F83A4D4FF0030908274FF6FF7863
:2037CC00002605F13E0A2C460AF09AF820BB009601A80DF106016A4608F0ABFCE0B9BDF8BF
:2037EC000400102814D160789DF8061088420FD100980188884509D14088C00B08D3042015
:20380C0005F12002014608F063F801E006F0CEF9009808B10AF030FB208A41082DD320F0D3
:20382C00010063792179208253EA010225D073B9207A637A8DF8070005F132018DF8083019
:20384C000A680DF109031A608988998001E08DF80790A07A8DF80F00E37A8DF810300DF171
:20386C0007000BF07FF838B1636AA77023B11A6812B1196838468847208A810807D320F0F2
:20388C00020020825146304603F054FE208AC1089AD320F00400208207F0C6FC94E7C04656
:2038AC006C0900202DE9FC4191EA03084CBF4FF000484FF000084FEAC32545EA52554FEA85
:2038CC00C2264FEA43077F0D11BF45F0004500210020BDE8FC815FF4E06E1EF1FF0E7745BF
:2038EC0055D04FEAC12343EA50534FEAC0224FEA4104640D11BF43F0004300210020BDE874
:20390C00FC81744543D0E419A3FB0501A3FB06E7A2FB06631EEB030E57F1000751F1000174
:20392C00A2FB05631EEB060E57F1000751F10001FF1851F10001C01951F100014CBF4FF403
:20394C00806E4FF4007E10EB0E0051F1000148BF641C01D4400049415FF44077FF37E41BFB
:20396C00DEBF00210020BDE8FC8117F58067BC420DD24FEAD02040EA41504FEA41014FEAD3
:20398C00113141EA045141EA0801BDE8FC810020FF21C900C91D090551EA0801BDE8FC81A0
:2039AC002DE9F84F00298346009106DD024600980021401E42F8041BFBD10098DFF8C880FD
:2039CC00DFF8CC900028C8F800B012DD2F48009C0768002537F8020B38B1D9F80000AE00D6
:2039EC003158002088474BF80600641E05F10105F0D1284F41460120D7F80080C880B8F15C
:203A0C00000F22DD4FF0000A00980127002817DDABF104050446002655F8040FB0F1FF3F13
:203A2C0004D0D9F800107158884728600021B0F1FF3F08BF0121361D641E01EA0707EBD132
:203A4C0037B90AF1010AC245DEDB04A00AF0C4F80D4900200860BDE8F88FC0467864632ECD
:203A6C0072756E74696D652E537461727475703A20276D6178506173736573272065786358
:203A8C00656564656400C046781B002038F900003CF9000034F900002DE9F0478146D9F8F2
:203AAC000440D9F808500AF0F3FFD4F88810002963D00BF02DF92968486820F002004860C5
:203ACC002968486A20F003004862D4F8A07068692969084379680968C1F8040529684869FA
:203AEC0020F00100486128684FF00108C0F82080484609F027F9D4F8880047680AF0C8FF65
:203B0C0004F1D8068246307858B117F0704F03D117B1042008F0D0F8022008F0CDF8002008
:203B2C00307050460BF0F4F8D4F88810087C042803D003200874D4F888102A696869D4F842
:203B4C00A0604746104307FA00F270680068C2622868B0F1804F14BF0A480B480F680068CB
:203B6C0000268204A7EB9250401E08604846A268C4F888609047BDE8F0870BF0C9F8BDE8C3
:203B8C00F087C0460805002038040020F8B5154603784278384CC67842EA032283781201B5
:203BAC0042EA231C0279238842EA06224079B4F90A60120142EA2012C3EB2210D210A2EB84
:203BCC004302B4F90230404353430213B4F904005043801300EBE32000EB8002803212127F
:203BEC000A60A11DB4F908404010A0F57A4082105243531373434443641004EBE3044FF4A6
:203C0C00004303EBA4430C885C43E71332D0B1F90830B1F90A40D612584304FB06F2174B9F
:203C2C00B1F9066040F6354402EB4002300404FB1C3300EBA200021304FB1230C20F19BF7C
:203C4C00B0FBF7F040004000B0FBF7F0B1F91030B1F90E70B1F90C60C20884085243520B44
:203C6C005A4307FB04F35B1303EB2233F11800EB21102860F8BDC04620360020000050C300
:203C8C002DE9F0430646ADF11C0D0AF04FFF07F0B3FF4FF000090546CDF800900AF0ECFEFF
:203CAC0030F0010002D00098A84202D16FF0040059E070684C4658B1B0F1FF3F05D001A943
:203CCC0007F082FF30B107464CE04FF0FF3000E02046019009F032FD0199012701EB0008E3
:203CEC0000E001936868019900F056FE00282ED003A807F033FCD8B99DF8100002A907F0C7
:203D0C0013FC88B9B368BDF808009DF81210059A984748B19DF81270B773BDF80800B08112
:203D2C00059B33614F4612E00599684608F0D8FB0198641CB0F1FF3FD4D00028D2D009F046
:203D4C00FDFCB8EB000302D001989842C9D2009905F1080008F0CAFE24B1686804F0F6F9F9
:203D6C00641EFAD1384607B0BDE8F083F0B5ADF1340DFFF7FFF9304908682822082340F09D
:203D8C000200086001A800210AF0BEFE2B4E2C490524002301AA079406F1BC0007F0ECFA1D
:203DAC0000213022082301A80AF06CFE0025FF271921244AADF81C5001AB099706F16000A5
:203DCC00009507F0DDF82822082301A829460AF09BFE1D4901AA2B4606F1F000079407F05B
:203DEC00CBFA3022082301A829460AF04BFE01241A21164AADF81C4001AB099706F17C009A
:203E0C00009507F0BDF812492A4606F19800134607F0ACFD0F480AF09FFDB47186F85F50C3
:203E2C007571F57135727572B5724FF6FF7075610DB0A6F85C00F0BD0020094048150020A1
:203E4C00FDE1000041D20000A96C00000D93000031CF0000B93400002DE9FE4F0CAF3D88E0
:203E6C0083460E4608469846144601A908F048FD012808BF01205ED0BDF80400DFF8BCA081
:203E8C0042F6021100274FF0FF09401A40D048F2FF21401A2BD0401E13D0401E36D1002D71
:203EAC0032D1B8F1020F2DD1207806281DDAF068218801802248F168884231D14FF0020923
:203ECC0031E00DBBB8F1060F1CDA207810280CDCF0682146424601F0F5FFF1685046001D59
:203EEC0088421DD14FF001091DE0802718E05DB9B8F1100F06DCF0682146424601F0E2FF40
:203F0C00B94610E00D270BE00B2709E00A2707E00095584643463146224605F0DFFE07469A
:203F2C00B9F1FF0F06D05046006818B1016809B1484688473846BDE8FE8FC046BC200020EE
:203F4C00B8200020BFB5384C0746401E3CD0354D401E21D0801E012833D9801E02D0801EFC
:203F6C0025D05BE028460AF0DBFB10B928460AF0F3FEE0680A210022054607F0A5FB00220C
:203F8C0028460F2107F0A0FB00222846152107F09BFB03F0A5FE41E028460AF0C1FB10B9EE
:203FAC0028460AF0D9FE00200AF09EF836E008F091FF04F10C0000680A21012207F084FB3B
:203FCC002CE008F087FF29E00F20052106F050F94FF441706946FFF73DF89DF800009DF8B6
:203FEC0004308DF808009DF805108DF80E309DF801508DF80F109DF803008DF809509DF8F2
:20400C0002308DF80D0002AA8DF80A3000208DF80C0008218DF80B0002F0D4FA2770009014
:20402C00BFBDC046A8050020200500207CB50446084603F0B9FD344E02461821304608F0FD
:20404C00A7FA09F087FC40F2FF32002380B22C210090304605F0D4FE0AF032FB1C210246B9
:20406C00304608F095FA09F067FC02461421304608F08EFA09F078FF02461021304608F011
:20408C0087FA204603F0E0FB02460C21304608F07FFA204609F050FF1C4D400040F020005C
:2040AC002870204609F054FF40F010002870204609F044FA02462821304608F069FA20466D
:2040CC0009F05EFF400040F06000E870204609F063FFC00040F0800005F8080C204609F0B5
:2040EC0067FF800040F47C40A5F89300204608F065FA02460821304608F04AFA4FF480000B
:20410C00A5F2091108607CBD00A00C4049A10C4098B5354944680968806849680068884767
:20412C00324A0121916140B1237AFF2B05D0FF214009217253D2042149E0207A00284ED007
:20414C00401E17D0401E02D0FD3848D044E05368D4F8B4000370D4F8B400401CC4F8B40073
:20416C00D4F8B8707F1EC4F8B8701CD0012F88BF09212CE0D4F8B0707F1EC4F8B07014D1DB
:20418C00D4F8B8707FB10220D4F8A8102072097C012F4FEA410141F0010142F8041C94BFA7
:2041AC0003210B2114E004210FE0D4F8AC0000785060D4F8AC00022F00F10100C4F8AC00F8
:2041CC0005D2D4F8B87017B9052100202072022011600AF055FD98BDFF20207298BD04F131
:2041EC002C0006F055F998BDAC010010042800402DE9F041456884680F6895F88C20B8B2CB
:20420C0090401FFA80F82068B0F1804F14BF2B4E2B4E8A682B483AB995F88C2000EB820076
:20422C00836905F1A60206E095F88C3000EB830003694244521EB36000F1080C7260206877
:20424C0008303060B36843F6F07E3A01103A0EEA02021343B3602668B6F1804F14BF1A4BA2
:20426C001A4B4F688FB9E089A5F8A600DCF810709F6005F1A6061E600968266872460901EE
:20428C00103906F108000A4006E0DCF80010996008EB0701491E19605860986802439A60EB
:2042AC002169D5F8A07060690843796809688862706A40F003007062BDE8F0810005002021
:2042CC00300400202CEF00001005002040040020F8B5071C5BD007F0BEF87868BA690025FA
:2042EC00BD61B8B1F87F42F00202002300F00700401E07D0401E03D0801E06D126A002E0E1
:20430C0027A000E028A090E80C007C68F868B7F91C10A0470AF0BCFB1D4C0646B4F9320052
:20432C00401C6FF31F30608604F12C000168CD7709F092FE30460AF0EBFCF868B0F9B810FF
:20434C00B4F93220914222D1217801291FD090F8BA60BEB90668AEB1E2680E491268096868
:20436C00B2F1FF3F13D0B6FBF1F2012A8CBFB6FBF1F1012170300AF013FDF868703009F00B
:20438C00FDFFF8BD80F8BA50284603F079FDF8BD48150020E8F800000000000000000010E5
:2043AC00000000000000004000000000000000202DE9F8430C460546E6B2200824BF2F4889
:2043CC004440DFF8BCC0B2005CF8020084EA00012940C1F300672C4905EA0403A843FF3179
:2043EC00194005F4E0230143B3F5E02F01D1480E14D305F4E020074310D001F4E027B7F587
:20440C00A02707D0B7F5803704BF21F4003141F4A02103E021F4803141F4C0216046DFF854
:20442C006480815008F1D0073868F04010F0010905D1E80D03D34046C4F380518155280E56
:20444C0010D30AF025FB210E03D201210023B14002E00121B1400B463A688A4313433B6073
:20446C000AF056FCB9F1000F05D0E80D03D34046C4F380518155BDE8F883C046006000A081
:20448C000010084000200240007F077FF8B50F460146344D4C688E683846203804F10C0402
:2044AC003ED0401E4CD0401E47D120781778012814BF2A492A49FF2F41EA070125D0D4F8C7
:2044CC00900003F0DFFD70BB3068B0F1804F14BF23220B22D4F89000394608F085F8D4F8DD
:2044EC00900094F8811004F05BFC207884F88170012813D194F8980001280FD1D4F890001D
:20450C002946394307F0C0FB08E0D4F8900094F8811004F045FCFF2084F8810000251BE020
:20452C002078012802D04FF0FF3515E094F88120294601200025114308E06FF001050BE006
:20454C0094F881100020054641F0004184F89800D4F8900007F098FB2846F8BD0004C0A0D4
:20456C0000200080000006803348F8B5057809F09DFF00284FD00120682103F087F8002844
:20458C0059D02E4C0920211D012208700F466B2008F082F800283ED0072020713946012288
:2045AC006C2008F079F8002835D001261D2039462671324608F070F800282CD04020207166
:2045CC0039463246382008F067F820B3C020207139463246692008F05FF8E0B125711F20B0
:2045EC003946324608F058F8A8B106202071394632461E2008F050F868B129202071394679
:20460C0032466B2008F048F828B1E11C1C20324608F042F810B90AF0FFF9F8BD3A2039464E
:20462C0032460AF053F90AF0F7F9002020700449606907F029FBF8BD392400200C25002062
:20464C00070006802DE9F041324E307800285ED0314CE08810F07F0F00F07F0855D006F0F7
:20466C00ADFC2E4F21783D78A0700DB9022924D1E278C30907D2400810D306F049FD06F068
:20468C00F9FA21780AE0521CD0B20228E07005D1A08842F21072B2FBF0F0A060002502299D
:2046AC003D700AD1E088C00907D3FEF7FFFF052821D008B104F0A0F82178A76817B9012963
:2046CC001AD122E0022909D0022020700027E77003F05CF910B1404607F078F8E088000A45
:2046EC0002D3A068401EA06004F110020020122104F0FEFA09E0A5600020E0700127277010
:20470C0003F044F908B1FFF72FFF00203070BDE8F081C0466D360020382400206B360020A4
:20472C00F8B50AF05BF903F073FA0AF063F9044604F00C000C284FD0E0081ED208F088F8CF
:20474C00274E376805460120014609F065F831686943884211D2234C8220B0FBF7F0291A58
:20476C0020460AF01DFB204609F008FE0120FDF743F8204608F0F2FF2FE020092CD21A4819
:20478C000AF08FF80428FAD01849620906D228B10A460846016821F0010104E00A4608467D
:2047AC00016841F001010160D2F898004FF0805440F00300C2F89800D4F8B8018069014641
:2047CC0020208847D4F8B801094C806B2168804701202060206800E030BF0AF005F9F8BD04
:2047EC00E8F80000A01B0020004003408C2108402C2009402DE9F84304460AF049F9814647
:20480C002D48021992F8ED10491ECFB2002F82F8ED704BD12B4D05EB84052E78698836F0BD
:20482C007F0788461AD1F10911D24FF08054D4F8B801806901464046884704F5DC74206862
:20484C00406B0146404688470228F8D121E000EB8800D0F80011002088471AE04FF08054C9
:20486C00D4F8B801006A014640468847D4F8B801806A014640468847D4F8B801006B01465F
:20488C004046884701210D4A0D48116001688908FCD306F03F003F2801D0FFF7ABFF6878C2
:2048AC0000F03F003F2801D0FFF7A4FF48460AF02FFABDE8F883C046941B00202820086096
:2048CC0028200840B8EF00002DE9F04106460AF0DFF82D4D8046A91991F8ED00421C002833
:2048EC0081F8ED204AD1294C04EB8604277807F03F003F2801D0FFF7E7FF607800F03F002D
:20490C003F2801D0FFF7E0FF668837F07F001AD1F80911D24FF08054D4F8B8014069014693
:20492C003046884704F5DC742068406B0146304688470128F8D121E005EB8605D5F80011D2
:20494C00012088471AE04FF08054D4F8B801C069014630468847D4F8B801406A0146304628
:20496C008847D4F8B801C06A0146304688470121074A0848116001688908FCD340460AF0A4
:20498C00C7F9BDE8F081C046941B0020B8EF000028200860282008402DE9F0410D46064693
:2049AC00B5F1FF3FADF1380D09D045B12B496B4605A82A4608F006FB05A9022001E0002148
:2049CC0003200391264F8DF8100038682024EFF31188371884F31188708980BB002D04BF28
:2049EC0088F31188002036D009F00AFF06460AF09DF80290C0F818D007F006F83846694640
:204A0C000AF076F89DF810000025022802D1039803F06AFA88F31188304608F0E7FAEFF324
:204A2C00118384F31188039810B10AF0B5F903950298856183F311889DF810000BE0708912
:204A4C00401E7081039818B10AF0A6F90020039088F3118801200EB0BDE8F081B5C80000C5
:204A6C00F4F800002DE9F04115460446A869A060686A98460E4608B92A4800686062286A4E
:204A8C00002806BF28480768071C0AF00DF8EB69A3B9002808BF391C03D03F1841427F1EDE
:204AAC0039400246E161606AE169434603F010F82062206AB8B90120BDE8F081002804BFB0
:204ACC002362391C0BD01B1841425B1E01EA030020623F1AE869C019E061E0690140E161E6
:204AEC004FF0FF306062A6622869E06268692063A86A6063A88DA087A08F012803D10B499A
:204B0C00C868401CC8602046414602F089F90346404609F0D9FB002814BFD81C0020BDE824
:204B2C00F081C04608F900000CF90000C82400202DE9F0412F4C0546A41C20781F46904640
:204B4C000E46ADF1380D012803D0FFF70FF9012020705EB1B8F1000F6E6007D0C5F80880B6
:204B6C0009F096FF617819B10AF0D2F800203BE0491CC9B261700AF0CBF801241FB96846E0
:204B8C0009F076FC6F46386828607868E860387C2874B8686C746861788A6882F86800B183
:204BAC00A8610021A02205F1200002F077FA05A800212422082309F0A1FF8DF82C4005F1C5
:204BCC003800002105AA07F0F7F905A800212422082309F07BFF06490B9505F170000022B1
:204BEC0005AB06F0C3FE28460EB0BDE8F081C046B1EC0000481500201EF0040F14BFEFF30A
:204C0C00098169468869EFF3118102B400B5DFF89CE0F047284A116801EA000010605DF85A
:204C2C0004EB1EF0080F03D101BC80F31188704704BC1EF0040F14BFEFF309816946A1F19F
:204C4C00200114BF81F309888D464A604FF08070C8611A488861184B1868086040F20110A1
:204C6C001860704702B401B4EFF3148100291CBF002282F3148802B402B4DFF834E0F04752
:204C8C0001BC01BC00281CBF022181F3148801BCDFF820E0F04704484FF08051016001BC13
:204CAC0080F3118800BF00BF04ED00E0B593000063EC000017ED000060250020714C000090
:204CCC002DE9F8430646B0680D4600F1080874686868002710B9E868002850D020780128CA
:204CEC0014D109F0D5FED4F8BC1049B1D4F8C0108D61C4F8C0500AF00BF80120BDE8F883D1
:204D0C00C4F8BC50C4F8C0500AF002F8022006F0EBFF04F160004FF0FF318146FFF73CFE42
:204D2C00D8F8000005F070FB3046294601F072FB0546D8F8000005F089FB207888B9B5F1E1
:204D4C00FF3F08D004F17C004FF0FF31FFF724FE207A48B110E003202072022006F0ACFF3E
:204D6C000AE0B5F1FF3F01D0012705E00320207204F12C0005F08CFB484603F0E7F938464A
:204D8C00BDE8F8832DE9FE4F0CAF3C8881460D4608469846164601A907F0B2FD012808BF23
:204DAC0001204DD0BDF80400DFF898A042F6021100274FF0FF0B401A2ED048F23F11401AEA
:204DCC0032D0401E14D0801E24D10CBBB8F1010F1CD130780A2809DBE9680870E96856460F
:204DEC00701C884220D14FF0020B20E080271BE074B9B8F1010F09D13078E9680870E968F0
:204E0C0056468E4210D14FF0010B10E00D270BE00B2709E00A2707E0009448464346294692
:204E2C00324604F05BFF0746BBF1FF0F07D05046001D006818B1016809B1584688473846D0
:204E4C00BDE8FE8FF81E00202DE9FE4F0CAF3C8881460D4608469846164601A907F050FD6C
:204E6C00012808BF01204DD0BDF80400DFF898A042F6021100274FF0FF0B401A2ED048F2E3
:204E8C001F11401A32D0401E14D0401E24D10CBBB8F1010F1CD130780A2809DBE9680870F1
:204EAC00E9685646701C884220D14FF0020B20E080271BE074B9B8F1010F09D13078E9680B
:204ECC000870E96856468E4210D14FF0010B10E00D270BE00B2709E00A2707E00094484601
:204EEC0043462946324604F0F9FE0746BBF1FF0F07D05046001D006818B1016809B15846C8
:204F0C0088473846BDE8FE8F901F00202DE9FE4F0CAF3C8881460D4608469846164601A909
:204F2C0007F0EEFC012808BF01204DD0BDF80400DFF898A042F6021100274FF0FF0B401A79
:204F4C002ED048F2FF01401A32D0401E14D0401E24D10CBBB8F1010F1CD130781E2809DBDD
:204F6C00E9680870E9685646701C884220D14FF0020B20E080271BE074B9B8F1010F09D17A
:204F8C003078E9680870E96856468E4210D14FF0010B10E00D270BE00B2709E00A2707E069
:204FAC000094484643462946324604F097FE0746BBF1FF0F07D05046001D006818B101689F
:204FCC0009B1584688473846BDE8FE8F242000202DE9FE4F0CAF3D8881460E460846984660
:204FEC00144601A907F08CFC012808BF01204DD0BDF80400DFF898A042F6021100274FF07B
:20500C00FF0B401A2ED048F27F11401A32D0401E13D0401E24D10DBBB8F1010F1CD1207862
:20502C000A2808DBF1680870F16855468D4221D14FF0020B21E080271CE07DB9B8F1020FE9
:20504C000AD1F06821880180F1685546681C884210D14FF0010B10E00D270BE00B2709E04F
:20506C000A2707E00095484643463146224604F035FE0746BBF1FF0F07D05046001D006861
:20508C0018B1016809B1584688473846BDE8FE8FB41D00202DE9FE4F0CAF3C8881460D460E
:2050AC0008469846164601A907F02AFC012808BF01204DD0BDF80400DFF898A042F6021154
:2050CC0000274FF0FF0B401A2ED048F26F11401A32D0401E14D0401E24D10CBBB8F1010FD1
:2050EC001CD130780A2809DBE9680870E9685646701C884220D14FF0020B20E080271BE00E
:20510C0074B9B8F1010F09D13078E9680870E96856468E4210D14FF0010B10E00D270BE05A
:20512C000B2709E00A2707E00094484643462946324604F0D3FD0746BBF1FF0F07D0504666
:20514C00001D006818B1016809B1584688473846BDE8FE8F4C2100202DE9FC470AAF3F884F
:20516C0082460C4608469946154601A907F0C8FB012808BF01204AD0BDF80400DFF894804E
:20518C0042F60211FF26401A2ED048F26311401A012827D827BBB9F1010F1FD1BDF80410B6
:2051AC004AF666200027884202D12978032913DA2978E2681170BDF80410884205D0E16882
:2051CC004046884218D13E4618E0E1684046401C884211D1012611E080270DE00D270BE06C
:2051EC000B2709E00A2707E0009750464B4621462A4604F073FD0746FF2E07D04046001D83
:20520C00006818B1016809B1304688473846BDE8FC87C04638230020264A2DE9F041804645
:20522C000126254816600768002FFCD0234DC02028602448011D0968890804D20168090C36
:20524C0041F0F00100E072211D4C84F85412002111638768384601F05BFF40463946FEF71B
:20526C00E5FE1948816D40F20F226FF31F418A4212D901680068C1F30363C0F3034003B17F
:20528C005B1E072805D006280EBF0720801C00F00F0043EA001020703846FDF743FE0B48F5
:2052AC000068C1680220884740202860084F3E60BDE8F081101009409402224300600C405D
:2052CC0002600840AC3F0050BC120050A0010010940460421CB52B4C401E02D0401E3FD0EF
:2052EC001CBD09F0B1FB40092CD3E088FF282CD00120694606F098FCBDF8000010F07F0FB4
:20530C0014D0BDF80000E080022002F085FD09F0CDF888B11C48006841F28831B1FBF0F0B7
:20532C0002F0ECF9BDF80000E08005E0BDF80000E080002002F070FDA21D0120022103F006
:20534C00D7FC07E0FF20A41D20800120FF21022208F084F900201222014608F07FF91CBD49
:20536C0002200DF1020106F05FFC9DF802002346410001EBC001998003F1240003F042FF5A
:20538C001CBDC04638240020E8F800002DE9FF4707F0E8FB2A4C4FF0FF3104F10C0000F0BA
:2053AC0057FC2448244D066824484FF47A77B5FBF6F8B0FBF6F938E0012007F0EBFC4046CE
:2053CC0002F09CF902A805F019FC8246002007F0E1FCBAF1000F1CD002A801A96A46FEF72B
:2053EC00D5FB9DF805308DF809309DF804208DF808209DF806008DF80A009DF802108DF88D
:20540C000D109DF801308DF80C309DF800208DF80B200020062102AA03F0ACF8608878434A
:20542C00401BB0FBF6F002F069F960780128C3D04846F8E7E8F800008038010040420F00F5
:20544C00280D00202DE9F84F0D46064628687468D6F8089000284DD009F01AFBD4F8881066
:20546C0021B109F055FC0320287443E001272F74C4F8885009F04CFCD5F8048009F008FB35
:20548C0004F1D80A9AF8003083466BB918F0704F05D1B8F1000F02D0042006F025FC0220F6
:2054AC0006F022FC8AF80070584609F031FCD9F80010486840F00200486030462946FEF7D1
:2054CC0097FED9F80010486940F001004861207830B9616804F16C052846FFF75DFA10B193
:2054EC003846BDE8F88F3046FEF7D6FA28460021FFF752FA0020BDE8F88F70477FB505F0BE
:20550C004FF8041C46D04FF4802010216A4603F0F1FF041C38D00098204E410F01D0864244
:20552C0000D200241E4901981F4D814204D829465639814202D226E0000B24D124B319488B
:20554C0010216A4603F0D6FF041C1DD00098410F01D0864200D200240198010B13D029461B
:20556C00814210D384B103F077FE104D064610214FF4F4202A4603F0BDFF28880024B042C6
:20558C0008BF012404E000244FF4F42003F020F806F0EAFA204600907FBDC0460050002027
:2055AC0001F0010010100400FFFF0100D032002070B5294C294D012806D028BB214600202F
:2055CC00491C08F00FFF1FE02146012008F00AFF0878022811D0491C002006F027F8286817
:2055EC000A210022064606F06FF8002230460F2106F06AF807F0F6FB06E009F025FA4870EB
:20560C00491C002006F012F821460878012822D1286861780546490834BF002201220A218E
:20562C0006F052F86078800834BF0022012228460F2106F049F86078C00802D207F0D2FB79
:20564C0004E0284605F052FB05F06EFB6078000901D302F079FB70BD5C2700202C05002010
:20566C00B0B5294C6078410809D320F0010060700A20014604F0FCFD05F0B2F86078234D21
:20568C00810807D320F002002F786070062F01D103F00AFC2078A178884232D007F03EFB65
:2056AC00A7782078790803D341083CBF0021A180B90803D381083CBF0021E18029780229E1
:2056CC0003D108F011FDA7782078B90808D3810806D22978062903D003F0E6FBA778207802
:2056EC0010F0030F0DD067B904F10800054609F017F828B9284609F02FFB0020E080A0802D
:20570C002078A070B0BDC04664260020200500202DE9F0410E46294990461C4606AF8C46A7
:20572C0072680878BB8851783F881278002502EB012242F62321521A29D0521E052A18D900
:20574C00921F0CD0263A34D1072F30D8C7F10700984298BF83B2674407F1080121E0B84241
:20576C0025DBC01B9842D8BF83B22380DCF804000BE0F06808F0EAFE80B2B84217DBC01B05
:20578C009842D8BF83B22380F06839180AE0082F0DD8C7F10800984298BF83B207EB0C01E0
:2057AC000F31238040461A4600F08CFB03E0072501E025800A252846BDE8F0817C170020A2
:2057CC002DE9FC4707F0E2F9284C0025A5704FF6FF70A08205F044FD234F2A462070012045
:2057EC0039461346009004F1A80004F093F94FF002082A4604F1CC003946CDF80080134681
:20580C0004F088F904262A4604F1F00039460096134604F07FF904F1480910224846294639
:20582C00E67001F03BFC04F1580A10225046294601F034FC04F120073D60257207206572E1
:20584C001021A0724A46E572404606F027F803201021524606F022F830463A46014606F048
:20586C001DF8BDE8FC87C04655E100006C09002038B504464A78284D087800EB0220ADF86E
:20588C0000006A88BDF8000090423AD1BDF80000891C000108F0CEFD6888AB88401C81B2A8
:2058AC0069808B4229D103F015FFE0B12046002102F010FD07F09AFC29780843287006F007
:2058CC00BBFA08F025FA90B12878410805D3AB692146032000229847287810F0060F06D0C4
:2058EC0008F006FF03E02046012102F0F3FC00242C7008F069FB6C8038BD204602F04EFFB1
:20590C0038BD00206880287008F05EFB2046032102F0E0FC38BDC04654190020264838B55A
:20592C0060300468B4F1FF3F08BF002408F078FD2248234B002501211038056003F15C0008
:20594C0001601448016003F075FE1348006820B1124800682046FFF75FFC11481149056092
:20596C00114C0A686FF35B4244EA020008600F490868C0F30130012806D10A680C481040F3
:20598C0040F400320A6008600A4908680028FCD138BDC0460822044380012843000120434F
:2059AC008C210840482003400000390104000940FFFFFCFC0C006842BC12005094046042B0
:2059CC0000600C402DE9F84F804608781C4616460AAF022831D02348DFF88C90D1F804B0EF
:2059EC008569102282464946584607F0E5FC002740B9002D33D08AF801400120414632467B
:205A0C00A8472CE009F110015846102207F0D4FC10B925B30220F1E709F120015846102257
:205A2C0007F0CAFC90B9012C05D13078002818BF8AF80A0013D1802711E0486842780078C0
:205A4C0042F6021500EB0220854201D00A2706E0388832460090404604F040F907463846E9
:205A6C00BDE8F88F5419002078EF00002DE9FE4F0CAF3D8881468B4608469846144601A94F
:205A8C0006F03EFF012808BF01203DD0BDF80400DFF878A042F602110026FF27401A21D01F
:205AAC004AF2C031401A0BD0401E19D1B5B9B8F1010F11D12078DBF80C10022708701BE004
:205ACC0065B9B8F1080F07D12168656850460E300160012745600FE00D260BE00B2609E085
:205AEC000A2607E00095484643465946224604F0F5F80646FF2F06D05046006818B101686F
:205B0C0009B1384688473046BDE8FE8F5C1E0020B0B501468B681C68E26948682262520834
:205B2C0024D2D0F8A01049680A685D69D2F80415294206D01C68616A21F002016162C2F8FE
:205B4C000455D2F8042519690A4230D01A68516A21F001015162D0F8A020526819691268DE
:205B6C003830C2F8041504F093FCB0BD1C68626922F001026261D0F88870AFB9626822F0C3
:205B8C00020262601C68626A22F003026262D0F8A0005A6940681C6900682243C0F8042502
:205BAC00084607F0CFF8B0BD0846FDF775FFB0BDF0B520480127F84201D004F01DF8204D87
:205BCC00204F214EBD4206D203CD0478A4003459401CA047F6E71D48002800D08047164DE0
:205BEC00164FBD4202D210CDA047FAE7F0BD03251BE0416808300A1C2A400BD11A1C2A40FF
:205C0C00AB4305D0046804300C600431043BF9D1131C05D0047801300C700131013BF9D106
:205C2C00021C2A4001D0A84304300368002BE0D17047C046FFFFFFFF0000000000000000E0
:205C4C002805010058050100F0040100D19700002DE9F0470F46064608F0D2FDEFF311891E
:205C6C008246202080F31188D6F80880474533D01D481E4B0468002F05D49C690125BD40B5
:205C8C0004EBC70401E0E4180025307D01281AD1304608F053FE306C08F049FE18B1F168BF
:205CAC005868884358601869864204D02046314608F01EFF04E020685C61314609F076F87F
:205CCC00586828435860B760F5603464002F44BF002058610120188189F31188504607F06A
:205CEC0085F94046BDE8F087FCF80000C82400202DE9FF41244D8046681C00780E4608286B
:205D0C0014BF04240024084604F0CAFC684601F0B3FFA4190026E178A0786E8000EB0120B1
:205D2C002E7080106946A880204602F009FD18B3204608F0BDFDE861000BE88008F050F914
:205D4C00A8B1E888A988C4B200EB2120C7B2A74208DB3F1B7F1C204608F095FF641CE4B259
:205D6C007F1EF8D14046314602F018FD08E04046022102F0AFFA03E04046694601F004FA7A
:205D8C000090BDE8FF81C04654190020B0B5244C2278E1889308084603D3491C401CE180F6
:205DAC0080B2A18852080F4603D3491C7F1CA180BFB2062F11DB06280FDB04F108000546E4
:205DCC0008F0AEFC58B3284608F0C8FF0020A080E080607840F001001CE003280BDA3843AD
:205DEC001DD104F10800044608F09AFCB8B1204608F0B4FFB0BD97B904F10800054608F05D
:205E0C008FFC60B1284608F0A9FF0020E080607840F0020060700348006802F097F9B0BDD0
:205E2C00642600202805002010B50020442101F02DFC002808BF002440D0214C1F20022208
:205E4C00214608F043FD002835D021880806000C40EA2120782815D110202080214602205D
:205E6C00024606F019FC30B302202146024608F02DFD00B321880806000C40EA2120B0F567
:205E8C00805F01D0208016E00020208021460220024606F001FC70B102202146024608F042
:205EAC0015FD40B121880806000C50EA2120208008BF012400D0002408F0AEFD204610BD3F
:205ECC0054360020002A4AD05FEA000C8B071CD1830722D1102A08D370B4103A78C978C07B
:205EEC00103AFBD270BC103238D0042A2CD3082A05D30C2A24BF08C908C008C908C008C9B6
:205F0C0008C092072AD0920F22E00B780370491C401C521E22D08B07F7D1C30714D18307CB
:205F2C00D8D0121F12D308C903801B0C4380001D121FF8D20AE008C903701B0A43701B0A16
:205F4C0083701B0AC370001D121FF4D2121D05D00B780370491C401C521EF9D16046704784
:205F6C002DE9F843224D884606464FF0FF3105F124008146FEF710FD00200CE0FF2909D0DC
:205F8C002A688A4204D905EB8101D1F894700FB1002627E0401CB8F1000F03D018F8201067
:205FAC00FE29EBD10024346074600127B46011E0FF280ED005EB80000B787268C0F89460BB
:205FCC0007FA03F0104370600A680A49304606F021FB641CB8F1000F04D008EB840108784D
:205FEC00FE28E5D1484602F0B1F83046BDE8F883C0310020007FC767FEB5FBF70DFF234C1C
:20600C00002504F1880607F06DFC00282FD1009501A80DF106016A4606F074F8D0B9BDF8B1
:20602C000400102807D160789DF80610884202D1009808F003FD009860B107F0F9FE09E010
:20604C00206907F00BFE071C04D007F0E5FC384607F0B2FE206908F06AFC0028F0D0FFF7F2
:20606C00FFFA07F09FF8FEF7EDFA08F033FAA088C10808D320F004002778A080022F02D1E9
:20608C00304608F069FE04F0CBFBBCE72005002070B5234D0C460646A00825D2A00F3AD3EF
:2060AC0004F016FD1C4808F057FCA81C0078012803D006F1380002F049F81848002404609C
:2060CC00022005F0F9FD1120FEF794FB307C10B90E20FEF78FFB2846124A04721178447251
:2060EC00C9B11470042112E005F12C06304608F031FEFEF7EDF8304608F02CFE30B924F04B
:20610C000204A00F07D34FF0005100E0022105F1BC0008F0B5F870BDB9340000000004607C
:20612C0048150020683600202DE9F8432020EFF3118780F31188214CA068012108F024FE50
:20614C004FF001094FF0000865692168A4F81C906A1A2168A4F81E80461B401A904227D336
:20616C0087F3118840464519361A4846294601F083F8B042F7D92021EFF3118781F31188D9
:20618C00E18B012903D14046294601F075F8B0F1FF3F06D0A169801B814238BF081C4119A4
:2061AC0001E0A069291807F0A7FCA4F820902560A4F81C8087F31188BDE8F883BC260020D0
:2061CC001CB50020772101F061FA002808BF00243FD0D0206946012208F078FB002835D062
:2061EC009DF80000582831D1F5206946012208F06DFB00282AD09DF8000038BB55208DF891
:20620C00000069460122F42006F046FAF0B1F4206946012208F05AFBC0B19DF800005528FF
:20622C0014D1B6208DF8000069460122E02006F033FA58B1F4206946012208F047FB28B11B
:20624C009DF80000002808BF012400D0002408F0E3FB20461CBD70472DE9FE4F8046B8F1F7
:20626C00000F01920C9802919B46009005D0081C03D0101C01D0009810B90220BDE8FE8F4A
:20628C001948017800252C4629E0A00038F800A04FF6FF7708EB000657451CD0B778D7B115
:2062AC000198029A594608F096F95FEA000912D0780806D3009B504601214A4601F09CFB7F
:2062CC000543B078800806D33088009B02214A4601F092FB054304480178641CE4B2A14257
:2062EC00D3DC2846BDE8FE8F6C09002038B5234D401E02D0401E30D038BD08F0A5FBC0086E
:20630C0023D32C78FF2C22D00120694607F026F99DF8000068B9D4B105F1080008F01EFD88
:20632C00002005F04BFF00200222014607F018FF07E064B9012005F041FF05F1080008F009
:20634C000BFD9DF80000287038BDFF242C7001202146024607F004FF38BD0220694607F0C1
:20636C00FDF89DF800002C46410001EBC001618004F1080002F046FF38BDC0469026002041
:20638C00FEB5044622481646089FC069618250F821201C4800681D4690420DD01B48006849
:2063AC00009000220191184E029231888F23384607F0F6FB0120FEBD084604F025F8A66081
:2063CC0068696060286AB0F1FF3F08BFFF2020740026E660288B00280EBF301C0120E06074
:2063EC000146A88C10B141F00200E060204602F087FD0346384607F067FF002814BFD81CF3
:20640C00301CFEBDD4F800005CF90000C0F800004025002080B5406800F10802C0F8A810C3
:20642C000868C2F8A4004868C2F8A8008868C2F8AC00C8681A49C2F8B000D2F8A87097B9EB
:20644C00D2F8A000007C400040F0010041F8040C022010700B68DB0917D2D2F8B020022AE8
:20646C0017D30B2216E0D2F8A000007C0127400041F8040CD2F8A4001770431CC2F8A4308A
:20648C00007848600868C00902D34FF0FF3080BD022003220A6008F0F3FB002080BDC0461D
:2064AC000428004022482DE9FE4F801E028880465FFA92F1100100F47042801A1FFA80FBE8
:2064CC00B8F80200C5B241185FFA81FA0021AA45019124DBAAEB0506761CA8420CBF0424AA
:2064EC000024AA45D8BFA34513DD284621466A4608F05EFB0427E94619F8011B019805F023
:20650C006BFC7F1E0190F7D1241DA4B2B4F5805FE7DBB8F802006D1C761EEDB2DDD101987C
:20652C00002105F059FC002105F056FCBDE8FE8F5A1900202DE9984308F0AAFA1F4CDFF8E8
:20654C007880814604F1E000007850B94446A0680146022088470746102003F005FD2FB3FC
:20656C0020E002F091F8002820460FD1144909683222B2FBF1F101B9012100F1300420460E
:20658C0008F00EFC204607F0F9FE0FE044460022A16880F8E020022088470746102003F01C
:2065AC00E3FC1FB1A068014603208847484608F0AFFBBDE89883C0463CF80000941B0020E6
:2065CC00E8F80000F8B50D461F4C20490728164638D8DFE800F0192C2A2826242104284635
:2065EC0006F04CFF071C2DD0616804F11700884202D0606807F004FC384631462A46FFF7A3
:20660C0061FC67602570F8BD082D1BD130680F34206077686760F8BD0C46153408E00C4654
:20662C0006E0643404E04F3402E03A3400E0253420460021152200F031FD204631462A46B7
:20664C00FFF740FCF8BDC0467C170020F517002070B51F4CA568064607F03EFC4FF47A711A
:20666C00401B4843050C06F0F5FA2169401A48BF404240F6B831AD19A94211D306280FDAFA
:20668C00A268E1688A420BD8206848B1891A114A51438A0C02EB1141884288BF011C08E0EE
:2066AC000D49486840080ED208687D2100F0FF004143C82905D3B1F57A6F88BF4FF47A6162
:2066CC0003E0C82101E04FF4FA61084670BDC0463836002040420F00AC3F00502DE9F04141
:2066EC0007467868051DD0F8BC00A8B308F0D0F91A4E00248046F46004203060022008F02B
:20670C00BFFA2B68D5F8A410384622469847022005F0D2FA09E081692B6822463846C5F8EF
:20672C00B8109847022005F0C7FAD5F8B800D5F8BC108142EFD12046C5F8A4002C71C5F80C
:20674C00B800C5F8BC00064B346038461C6003F00FFB404608F0DCFABDE8F081042800404A
:20676C001004054238B5204D401E02D0401E2FD038BD08F069F900091ED36C78FF2C1ED085
:20678C000120694606F06CFC9DF8000028B19DF80000012813D1012106E000200622014618
:2067AC0007F0F6FC4FF0FF3105F10C00FFF750FA9DF80000687007E0FF246D1C2C70012076
:2067CC002146024607F0E4FC002006F0E3FA38BD0220694606F044FC9DF80010AD1C480082
:2067EC0000EBC100288038BD280D00201FB5204C002834D0012822D0022837D1022002A969
:20680C0004F0B0FF21467E209DF80920C8619DF808404A76052C0C7614BF02200420887676
:20682C00887E01F11C048DF8080021680DF1090302AA01201960052104F0A4F916E0012000
:20684C00694604F08FFF9DF8000021460DF10102144601F11C0388762168196006E0214646
:20686C000020203104F07EFF03F00EFC00901FBD7425002038B5204D401E02D0401E2FD021
:20688C0038BD08F0E1F840081ED36C78FF2C1ED00120694606F022FE9DF8000028B19DF807
:2068AC000000012813D1012106E000200422014607F062FC4FF0FF3105F10C00FFF7C8F9AD
:2068CC009DF80000687007E0FF246D1C2C7001202146024607F050FC002003F0C1FF38BD35
:2068EC000220694606F0FAFD9DF80010AD1C480000EBC100288038BD901200202DE9FC41BA
:20690C0008AF38881D4690460E46002818BF0B2033D10846694605F0F3FF012804D1002037
:20692C0028800120BDE8FC81BDF800004AF601410024401A16D0401E0BD0401E1CBF2C80A7
:20694C000A2419D102202880F06800884146088012E005202880F068026841460A6000796F
:20696C00087109E006F030FC0548083002782A80F1684046FFF7A6FA2046BDE8FC81C046DB
:20698C00B8200020F8B5001D84B214F0030002D0241A241DA4B207F03AF901461948102C37
:2069AC0047680160C8BF8768388800221646C30BDD0319D126B984420ADD3A46012617E045
:2069CC001388C3189BB29C42138011DC174618469FB1001B80B20428B4BF3C88385344F40C
:2069EC0000443C803F1D08E080F40040002680B2C71938880028DAD10027084607F092FCCE
:206A0C003846F8BDB41C0020B0B50446A768ADF1280D27BB0C20FFF7B5FF071C16D0684647
:206A2C0000212422082308F051F8002306976A466168ADF810301448059304F081FC38605C
:206A4C0038B907F064FC384605F058FC6FF0030018E0E06878602069B860A7600AE007F018
:206A6C00D6F80546386806F079FE2069B860284607F058FC3868616808F092F9386807F007
:206A8C007DFC00200AB0B0BDADE90000F8B50E46044607F09DFE0546304605F0ADFE071C33
:206AAC0003D1284604F096FF28E0F87F10F0070F1DD114487968884202D079682166786063
:206ACC0011A090E8060004F15807284687E8060004F080FF04F138004FF0FF31FDF75CFFE6
:206AEC0004F168060020206696E80300F8BD284604F070FFF87F10F0070FFBD102200021DE
:206B0C00F8BDC04631970000020000000000007038B51F4D401E02D0401E2CD038BD07F0A5
:206B2C0093FF80081ED36C78FF2C1ED00120694606F074FC9DF8000028B19DF800000128DF
:206B4C0013D1012106E000200422014607F02CFB4FF0FF3105F10C00FFF77AF89DF8000024
:206B6C00687038BDFF246D1C2C7001202146024607F01AFB38BD0220694606F04FFC9DF87C
:206B8C000010AD1C480000EBC100288038BDC046DC0F0020B0B514460F4607F079FF85B2B4
:206BAC0019480068007808B906F060FF87B1384605F0D1FE40B114B14FF0FF30207008201C
:206BCC00FDF718FE002419E038687968BA6803E04FF480700122014604F05CFD0B4901209D
:206BEC0008600B4908684008FCD30A4800684168022088470CB1002121700446284608F0D3
:206C0C0087F82046B0BDC0464CF80000A802504208800240CC010010F8B51F4C0546207EE8
:206C2C00012802D9401F1FD023E0012803D107F03DFC061C0DD0207E617E00F027FD061C14
:206C4C0007D0207FA27E294607F040FE064607F0E3FE012E0DD0FF210020A27E824208DDB5
:206C6C002954401CC0B2F8E7E169A27E2846FFF729F9A67E241D28463246214606F09CFBAF
:206C8C00002700B1012727B1204629463246FFF719F93846F8BDC04674250020F8B507F025
:206CAC00F7FE1C4C0746A06D10F4602F26D0A06D400CC6B2700807D2B00803D2F00828BFFA
:206CCC00022602E0012600E00026751D68B202F041FBA36D06F111010120884023EA000187
:206CEC003846A16508F014F804EB8600C76C47B1A06C09A20CCA2946B84702E0384608F00D
:206D0C0007F8A06D20B104F1F000002107F0B8FAF8BDC0464815002000000000000000089B
:206D2C0070B507F0C3FB002832D003F029FB88B301200C2100F0AAFC60B3184C0F20211D29
:206D4C00012208700E460A2005F0A6FC1248006842F21071B1FBF0F000F0D0FC1020032263
:206D6C0004F10E0107F0B2FD06F10A0550B128786B78AA788030208103F18000608102F118
:206D8C008000A08101220B203146227105F084FC07F042FE70BDC046E8F800000C250020DE
:206DAC00B0B517491C481D4A0F68C0691549C2F8080DD2F8083D99420ED06FB1124B1B68A2
:206DCC0000240F2C2CBF1D1C0D68091D641C05607F1E00F10400F4D10D48D2F80C7D0B4D4D
:206DEC000168202427F47F4000EB01202918C2F80C1D084B82F8224D1868C2F8140DB0BDCC
:206E0C00C4F8000010100000D4F800000000FA05D8F80000CCF800004025002000E000E0E6
:206E2C0070B50D461B4A1A4904462B4605F022FA2061284607F048FA40BB18480122002173
:206E4C00A568036822751448A161002D18D4A1688A408069A168E26007F03EFE206407F0EB
:206E6C00CFFCEFF311850646202080F31188204607F012FA85F31188304606F0B7F805E0B1
:206E8C00E160C0182146206406F060FE002070BD91DB000003B00000C8240020FCF8000022
:206EAC00F8B50E4605461446A969EA691F462046FFF708F864602FB1EA69204639460823F3
:206ECC0003F006F9E468D6B9E8686969AA68079B07F03EFE071C08BF002020D007F02CFEB5
:206EEC0069683960696849687960696849680F6069684F6007F08CFC07F1080605E06A6913
:206F0C0030460021083A00F0C9F82868B0F1FF3F18BF3060286908B1616831503046F8BD46
:206F2C002DE9F043ADF13C0D07F06AFC1A4C184D002680461C3C684600213C22082307F05A
:206F4C00EFFD54F8042F6868AF6806902B680897694605920F480493002203F0DDFA071CC8
:206F6C0010D006F054FE8146384602F015FD48B1484607F0D7F92D1D761CDCD0404606F042
:206F8C0035F801E003F0DCF90FB0BDE8F083C046DCED00009DE60000C01C00201CB50420F5
:206FAC0006F0BCFC022818D0032816D016480068C0F38150032814BF41F288324FF47A7290
:206FCC001248144C016854342046B2FBF1F107F0E7FE204607F0D2F91CBD03200C4C00901D
:206FEC0000214FF040521C23204602F009FF012000214FF4007209230090204602F000FFEA
:20700C00022004F059FE1CBDB43F0050E8F8000000A00C40941B00202DE9F84305F08EFD6F
:20702C001B4D4FF0FF3105F10C00FEF711FE1548154E164F04684FF47A79B6FBF4F81AE009
:20704C00012003F00DFC404600F058FB0DF10200694600F0ADFE002003F002FC002004219E
:20706C006A4601F019FE688809FB00F0801BB0FBF4F000F043FB68780128E1D0B7FBF4F0C0
:20708C00F7E7C046E8F800003832040040420F0090120020002213460A46194671B510F00F
:2070AC00030F0BD0002A82BF00F8011BB2F1010210F0030FF6D1002A08BF71BD11F0FF01B9
:2070CC0041EA0121042A18D341EA0141082A0FD30E46102A08D30C460D46B2F10F0312F0F8
:2070EC000F0272C0103BFCD812F0080F18BF42C012F0040F18BF40F8041B12F0020F18BF03
:20710C0020F8021B12F0010F18BF017071BD704718490968C1F304611629A8BF203901EB19
:20712C002071491C162905DA11F10A0FB8BF6FF0090100E01521104A104B01F01F0141F423
:20714C00F85111801968890803D20D4A0021116001E040F040600B4AC10E800E81F00101A3
:20716C0080F0010001F00101116000F0010090607047C046B81200506E6208400000094015
:20718C0094042A4300002043FEB51C4D0C462D1FE968064607F064FA40082CD330460821E9
:2071AC00002206F075FB0746019727B32A4602F120001021083207F00EFA08254089ADF8F4
:2071CC000250ADF8000022783A702188019809124170A17881706188231D0912C17019685A
:2071EC00051D30462960694606F004FD18B168461B2106F05BFB06F0E7FEFEBD5819002096
:20720C0010B51C4C00202070FEF70EFE18B1207840F00100207000F0CFFE18B1207840F014
:20722C0002002070FEF7CCFF18B1207840F00800207002F0EFFA18B1207840F004002070C7
:20724C0001F008FB18B1207840F01000207003F0A7FA18B1207840F02000207007F0B2F986
:20726C00002808BF207803D0207840F04000207010BDC0466C3600202DE9F04780461A4806
:20728C001A4C00682418204607F08EFD0E464FF0FF374FF0000A814621E04D46284607F01E
:2072AC0087FD8146A88A012819D1B8F1010F0ED1E86886420BD12869002808BFA5F814A0D5
:2072CC0002D0E9684018E860A969E8698847A88A012804D1E868801B874288BF071C4C45CE
:2072EC00DBD13846BDE8F087E4F80000BC26002038B5054601201A4C68712879B0B906F0C6
:20730C0086FC2178002904BF6FF00704051C15D0491EC9B2217039B907F004F8606804F0D6
:20732C00C3FE0020687118E0054613E006F06FFC05462078FF2805D16FF00604284606F043
:20734C00F1FF0BE0401CC0B20128207002D1606804F0C1FE284606F0E5FF0024204638BDAA
:20736C004427002070B50646B079F5680B28A5F108052CDA30790B2829DA06F048FC154C29
:20738C00B27991000C3401EBC20161184968E1B106F0C8FF30792870B0796870307AA870B9
:2073AC00B179880000EBC1002018F1684068083005F096F8B179880000EBC100241860680D
:2073CC00406800F0C3FE002070BD06F0ABFF6FF0020070BD201D002038B519491A4C00209B
:2073EC004822C1F8F30F94F8E200C1F8FF2F20B3012817D0022807D003281ED151F8310C83
:20740C0000F05EF80B2016E051F8315C2846FAF7FBFD40F2FF50A84202D8801CA842F1D23E
:20742C00082008E051F8310C01F074F8054800780028E7D0052084F8E400FBF74BF938BDF9
:20744C0039400C404AF80000941B00202DE9FC411A4C4FF0050804F11400002604F11C0500
:20746C002860102284F8188004F120076676314666610420A0763846FFF710FE1021304699
:20748C003A4603F07FFBA07E8DF8000029680DF101006A4601600120414603F073FB207E08
:2074AC008DF80000607E6A468DF801000220014603F068FB05F088FEBDE8FC817425002012
:2074CC0038B51A4CA0F5C060D4F8B810C4F8D4000029B8BF49420028B8BF4042814220DA6B
:2074EC00B4F8BC00124D30214FF47F4208230090284602F085FCB4F8C00004214FF4F802FA
:20750C0012230090284602F07BFCB4F8D00020214FF440620A230090284602F071FC012076
:20752C0000E0002084F8D80038BDC046941B002000A00C402DE9FF410E460546194C7188E2
:20754C00E08A81420CDCB188814209DBF088218B884205D13089618B884208BF18271DD004
:20756C00052003F03DFA7788B388ADF80270F288ADF804303189ADF806208046ADF8081004
:20758C00A08AADF80000684607F0F8F9071C05D1A57304F1F000414603F0F2FD384600900D
:2075AC00BDE8FF816C0900202DE9FC4117460E4605464FF0020802F0A3F918BB04F072FEA8
:2075CC0000BB05F0FF04C4F58074B44288BF341C8DF800808DF80350280C8DF80100280AE9
:2075EC008DF8020006F09EFF6846042104F0DCFB361B651920B93846214604F0D5FB20B1A5
:20760C0006F086FF0020BDE8FC8106F081FFE719002ED0D10120BDE8FC81FEE71A4898B585
:20762C00D0F8781203680F0F03F0FF03802B28BF002302F0C1FB4FF0FF3478B1401E07D03B
:20764C00401E012802D9801E19D01AE0BFB118E0381C12D0801E14D1143311E03846401E06
:20766C000BD0801E07D0001F03D0401E09D1163306E0152405E0142403E00A2401E00A33D0
:20768C005CB2204698BDC046A010005070B50D461549194C134A09680646241F04F114006E
:2076AC00B2FBF1F1FDF778F9002808BF002017D00E4805700E4D20682978B1420CD02E7018
:2076CC0007F05DFA06F054FB2878012804BF0948206105F0E9FC2060002100B10121084611
:2076EC0070BDC04620A10700E8F800006E3600206A3600207AF800008C35002070B5021C89
:20770C00ADF1380D2ED0184904A86B4605F05AFC2024EFF3118504A8039084F3118807F071
:20772C006FF8064607F002FA029004F06DF9039800F0DAFB684607F0F7FA0298C0F818D07B
:20774C0085F31188304605F051FCEFF3118384F31188039807F020FB0021039183F311885D
:20776C00029881610EB070BDD1DC00000CB44FF07F4343F460034FEA4102D21A1BD24FEA00
:20778C00105040EA013010F5807024BF400801F580114FEA5020002948BF40F000404FEAF9
:2077AC004101490DB1F560710CD4FF290DD240EAC1500CBC7047DB431A40024305D0D84360
:2077CC000CBC704700200CBC704701F00041FF204FEAC05008430CBC70477047F8B5174A56
:2077EC00174B184C121D22F003019C4621605E1A2068256860606768A660002001E025F8CF
:20780C00020BAB42FBD84FF6FC75B3102A4001EB830323F8040CACEB0202E82315403B8059
:20782C00EC3DA1F8E850E83144F8081CFFF7AAF844F8040C606844F8080CF8BD6F36002053
:20784C00F8410020C01C002038B504461848174D143802686B68C2F30351C2F303405B08DF
:20786C0013D22B681D0511EB257103D41029A8BF0F2100E000211B0410EB237303D4102B66
:20788C00A8BF0F2300E00023184640EA011002F47F4102F0FF03222C41EA004143EA010015
:2078AC0024BF02F08042104338BDC046AC3F00508C13005030B5401E4FF00004ADF12C0D50
:2078CC000AD0401E04D0401E20D1FAF703FF1DE001F092FA044619E001A821462422082310
:2078EC0007F0F4F806940D4DADF8144009490794012201AB05F1780004F038F8064A2346A5
:20790C002C2105F19C00009303F03AFB20460BB030BDC04641830000E5730000941B0020C2
